{
  "_format": "hh-sol-artifact-1",
  "contractName": "DonationManager",
  "sourceName": "contracts/DonationManager.sol",
  "abi": [
    {
      "inputs": [],
      "stateMutability": "nonpayable",
      "type": "constructor"
    },
    {
      "anonymous": false,
      "inputs": [
        {
          "indexed": true,
          "internalType": "uint256",
          "name": "projectId",
          "type": "uint256"
        },
        {
          "indexed": true,
          "internalType": "address",
          "name": "projectWallet",
          "type": "address"
        },
        {
          "indexed": false,
          "internalType": "uint256",
          "name": "goalAmount",
          "type": "uint256"
        },
        {
          "indexed": false,
          "internalType": "uint256",
          "name": "deadline",
          "type": "uint256"
        }
      ],
      "name": "ProjectAdded",
      "type": "event"
    },
    {
      "anonymous": false,
      "inputs": [
        {
          "indexed": true,
          "internalType": "uint256",
          "name": "projectId",
          "type": "uint256"
        }
      ],
      "name": "ProjectDeleted",
      "type": "event"
    },
    {
      "anonymous": false,
      "inputs": [
        {
          "indexed": true,
          "internalType": "address",
          "name": "donorWallet",
          "type": "address"
        },
        {
          "indexed": true,
          "internalType": "uint256",
          "name": "projectId",
          "type": "uint256"
        },
        {
          "indexed": false,
          "internalType": "uint256",
          "name": "depositedAmount",
          "type": "uint256"
        }
      ],
      "name": "TokensFunded_Crowdfunding",
      "type": "event"
    },
    {
      "anonymous": false,
      "inputs": [
        {
          "indexed": true,
          "internalType": "address",
          "name": "donorWallet",
          "type": "address"
        },
        {
          "indexed": true,
          "internalType": "uint256",
          "name": "projectId",
          "type": "uint256"
        },
        {
          "indexed": false,
          "internalType": "uint256",
          "name": "depositedAmount",
          "type": "uint256"
        }
      ],
      "name": "TokensFunded_Fundraising",
      "type": "event"
    },
    {
      "anonymous": false,
      "inputs": [
        {
          "indexed": true,
          "internalType": "uint256",
          "name": "projectId",
          "type": "uint256"
        },
        {
          "indexed": true,
          "internalType": "address",
          "name": "projectWallet",
          "type": "address"
        },
        {
          "indexed": false,
          "internalType": "uint256",
          "name": "withdrawnAmount",
          "type": "uint256"
        }
      ],
      "name": "TokensWithdrawn",
      "type": "event"
    },
    {
      "anonymous": false,
      "inputs": [
        {
          "indexed": true,
          "internalType": "uint256",
          "name": "projectId",
          "type": "uint256"
        },
        {
          "indexed": true,
          "internalType": "address",
          "name": "projectWallet",
          "type": "address"
        }
      ],
      "name": "WithdrawalApproved",
      "type": "event"
    },
    {
      "anonymous": false,
      "inputs": [
        {
          "indexed": true,
          "internalType": "uint256",
          "name": "projectId",
          "type": "uint256"
        },
        {
          "indexed": true,
          "internalType": "address",
          "name": "projectWallet",
          "type": "address"
        }
      ],
      "name": "WithdrawalRequested",
      "type": "event"
    },
    {
      "inputs": [
        {
          "internalType": "address",
          "name": "projectWallet",
          "type": "address"
        },
        {
          "internalType": "uint256",
          "name": "goalAmount",
          "type": "uint256"
        },
        {
          "internalType": "uint256",
          "name": "deadline",
          "type": "uint256"
        }
      ],
      "name": "addProject",
      "outputs": [],
      "stateMutability": "nonpayable",
      "type": "function"
    },
    {
      "inputs": [],
      "name": "admin",
      "outputs": [
        {
          "internalType": "address",
          "name": "",
          "type": "address"
        }
      ],
      "stateMutability": "view",
      "type": "function"
    },
    {
      "inputs": [
        {
          "internalType": "uint256",
          "name": "projectId",
          "type": "uint256"
        }
      ],
      "name": "deleteProject",
      "outputs": [],
      "stateMutability": "nonpayable",
      "type": "function"
    },
    {
      "inputs": [
        {
          "internalType": "uint256",
          "name": "projectId",
          "type": "uint256"
        }
      ],
      "name": "depositFunds_Crowdfunding",
      "outputs": [],
      "stateMutability": "payable",
      "type": "function"
    },
    {
      "inputs": [
        {
          "internalType": "uint256",
          "name": "projectId",
          "type": "uint256"
        }
      ],
      "name": "depositFunds_Fundraising",
      "outputs": [],
      "stateMutability": "payable",
      "type": "function"
    },
    {
      "inputs": [],
      "name": "getAllProjects",
      "outputs": [
        {
          "internalType": "uint256[]",
          "name": "",
          "type": "uint256[]"
        },
        {
          "internalType": "address[]",
          "name": "",
          "type": "address[]"
        },
        {
          "internalType": "uint256[]",
          "name": "",
          "type": "uint256[]"
        },
        {
          "internalType": "uint256[]",
          "name": "",
          "type": "uint256[]"
        },
        {
          "internalType": "uint256[]",
          "name": "",
          "type": "uint256[]"
        }
      ],
      "stateMutability": "view",
      "type": "function"
    },
    {
      "inputs": [
        {
          "internalType": "uint256",
          "name": "projectId",
          "type": "uint256"
        }
      ],
      "name": "getProject",
      "outputs": [
        {
          "internalType": "uint256",
          "name": "",
          "type": "uint256"
        },
        {
          "internalType": "address",
          "name": "",
          "type": "address"
        },
        {
          "internalType": "uint256",
          "name": "",
          "type": "uint256"
        },
        {
          "internalType": "uint256",
          "name": "",
          "type": "uint256"
        },
        {
          "internalType": "uint256",
          "name": "",
          "type": "uint256"
        }
      ],
      "stateMutability": "view",
      "type": "function"
    },
    {
      "inputs": [
        {
          "internalType": "uint256",
          "name": "projectId",
          "type": "uint256"
        }
      ],
      "name": "permitWithdrawal",
      "outputs": [],
      "stateMutability": "nonpayable",
      "type": "function"
    },
    {
      "inputs": [],
      "name": "projectCounter",
      "outputs": [
        {
          "internalType": "uint256",
          "name": "",
          "type": "uint256"
        }
      ],
      "stateMutability": "view",
      "type": "function"
    },
    {
      "inputs": [
        {
          "internalType": "uint256",
          "name": "",
          "type": "uint256"
        }
      ],
      "name": "projects",
      "outputs": [
        {
          "internalType": "uint256",
          "name": "projectId",
          "type": "uint256"
        },
        {
          "internalType": "address",
          "name": "projectWallet",
          "type": "address"
        },
        {
          "internalType": "uint256",
          "name": "goalAmount",
          "type": "uint256"
        },
        {
          "internalType": "uint256",
          "name": "deadline",
          "type": "uint256"
        },
        {
          "internalType": "uint256",
          "name": "amountRaised",
          "type": "uint256"
        },
        {
          "internalType": "bool",
          "name": "withdrawalPermitted",
          "type": "bool"
        },
        {
          "internalType": "bool",
          "name": "withdrawalRequested",
          "type": "bool"
        }
      ],
      "stateMutability": "view",
      "type": "function"
    },
    {
      "inputs": [
        {
          "internalType": "uint256",
          "name": "projectId",
          "type": "uint256"
        }
      ],
      "name": "requestWithdrawal",
      "outputs": [],
      "stateMutability": "nonpayable",
      "type": "function"
    },
    {
      "inputs": [
        {
          "internalType": "uint256",
          "name": "projectId",
          "type": "uint256"
        },
        {
          "internalType": "uint256",
          "name": "withdrawalAmount",
          "type": "uint256"
        }
      ],
      "name": "withdrawFunds",
      "outputs": [],
      "stateMutability": "nonpayable",
      "type": "function"
    }
  ],
  "bytecode": "0x60806040526001805534801561001457600080fd5b50612671806100246000396000f3fe6080604052600436106100a75760003560e01c8063c97455e911610064578063c97455e9146101b5578063d1884ab4146101de578063e5253105146101fa578063f0f3f2c814610223578063f851a44014610264578063f8a518ed1461028f576100a7565b8063107046bd146100ac5780634cd0cb28146100ef578063524da5081461011857806380d03829146101345780639ee679e814610163578063c90246b91461018c575b600080fd5b3480156100b857600080fd5b506100d360048036038101906100ce9190611a85565b6102ba565b6040516100e69796959493929190611b1d565b60405180910390f35b3480156100fb57600080fd5b5061011660048036038101906101119190611a85565b610336565b005b610132600480360381019061012d9190611a85565b6105a7565b005b34801561014057600080fd5b5061014961078e565b60405161015a959493929190611d08565b60405180910390f35b34801561016f57600080fd5b5061018a60048036038101906101859190611a85565b610b0f565b005b34801561019857600080fd5b506101b360048036038101906101ae9190611daa565b610e4e565b005b3480156101c157600080fd5b506101dc60048036038101906101d79190611a85565b610fd6565b005b6101f860048036038101906101f39190611a85565b61125b565b005b34801561020657600080fd5b50610221600480360381019061021c9190611dfd565b61146e565b005b34801561022f57600080fd5b5061024a60048036038101906102459190611a85565b6117fa565b60405161025b959493929190611e3d565b60405180910390f35b34801561027057600080fd5b50610279611a1e565b6040516102869190611e90565b60405180910390f35b34801561029b57600080fd5b506102a4611a44565b6040516102b19190611eab565b60405180910390f35b60006020528060005260406000206000915090508060000154908060010160009054906101000a900473ffffffffffffffffffffffffffffffffffffffff16908060020154908060030154908060040154908060050160009054906101000a900460ff16908060050160019054906101000a900460ff16905087565b806001548110801561035e575060008060008381526020019081526020016000206000015414155b80156103cc5750600073ffffffffffffffffffffffffffffffffffffffff1660008083815260200190815260200160002060010160009054906101000a900473ffffffffffffffffffffffffffffffffffffffff1673ffffffffffffffffffffffffffffffffffffffff1614155b80156103ee575060008060008381526020019081526020016000206002015414155b8015610410575060008060008381526020019081526020016000206003015414155b61044f576040517f08c379a000000000000000000000000000000000000000000000000000000000815260040161044690611f23565b60405180910390fd5b3373ffffffffffffffffffffffffffffffffffffffff1660008084815260200190815260200160002060010160009054906101000a900473ffffffffffffffffffffffffffffffffffffffff1673ffffffffffffffffffffffffffffffffffffffff16146104f2576040517f08c379a00000000000000000000000000000000000000000000000000000000081526004016104e990611fb5565b60405180910390fd5b6000808381526020019081526020016000206000808201600090556001820160006101000a81549073ffffffffffffffffffffffffffffffffffffffff02191690556002820160009055600382016000905560048201600090556005820160006101000a81549060ff02191690556005820160016101000a81549060ff02191690555050817f8c2a9a6341bba6c545de035fe1175518191d1ec50716506635b641372af17c5f60405160405180910390a25050565b80600154811080156105cf575060008060008381526020019081526020016000206000015414155b801561063d5750600073ffffffffffffffffffffffffffffffffffffffff1660008083815260200190815260200160002060010160009054906101000a900473ffffffffffffffffffffffffffffffffffffffff1673ffffffffffffffffffffffffffffffffffffffff1614155b801561065f575060008060008381526020019081526020016000206002015414155b8015610681575060008060008381526020019081526020016000206003015414155b6106c0576040517f08c379a00000000000000000000000000000000000000000000000000000000081526004016106b790611f23565b60405180910390fd5b600034905060008111610708576040517f08c379a00000000000000000000000000000000000000000000000000000000081526004016106ff90612021565b60405180910390fd5b60008060008581526020019081526020016000209050818160040160008282546107329190612070565b92505081905550833373ffffffffffffffffffffffffffffffffffffffff167ffb64fc620987bdac330bffdb026b0bc82ac8503691db600cb9bab19bf258e05f846040516107809190611eab565b60405180910390a350505050565b6060806060806060600060015467ffffffffffffffff8111156107b4576107b36120a4565b5b6040519080825280602002602001820160405280156107e25781602001602082028036833780820191505090505b509050600060015467ffffffffffffffff811115610803576108026120a4565b5b6040519080825280602002602001820160405280156108315781602001602082028036833780820191505090505b509050600060015467ffffffffffffffff811115610852576108516120a4565b5b6040519080825280602002602001820160405280156108805781602001602082028036833780820191505090505b509050600060015467ffffffffffffffff8111156108a1576108a06120a4565b5b6040519080825280602002602001820160405280156108cf5781602001602082028036833780820191505090505b509050600060015467ffffffffffffffff8111156108f0576108ef6120a4565b5b60405190808252806020026020018201604052801561091e5781602001602082028036833780820191505090505b50905060005b600154811015610af35760008060008381526020019081526020016000206040518060e0016040529081600082015481526020016001820160009054906101000a900473ffffffffffffffffffffffffffffffffffffffff1673ffffffffffffffffffffffffffffffffffffffff1673ffffffffffffffffffffffffffffffffffffffff1681526020016002820154815260200160038201548152602001600482015481526020016005820160009054906101000a900460ff161515151581526020016005820160019054906101000a900460ff16151515158152505090508060000151878381518110610a1b57610a1a6120d3565b5b6020026020010181815250508060200151868381518110610a3f57610a3e6120d3565b5b602002602001019073ffffffffffffffffffffffffffffffffffffffff16908173ffffffffffffffffffffffffffffffffffffffff16815250508060400151858381518110610a9157610a906120d3565b5b6020026020010181815250508060600151848381518110610ab557610ab46120d3565b5b6020026020010181815250508060800151838381518110610ad957610ad86120d3565b5b602002602001018181525050508080600101915050610924565b5084848484849950995099509950995050505050509091929394565b8060015481108015610b37575060008060008381526020019081526020016000206000015414155b8015610ba55750600073ffffffffffffffffffffffffffffffffffffffff1660008083815260200190815260200160002060010160009054906101000a900473ffffffffffffffffffffffffffffffffffffffff1673ffffffffffffffffffffffffffffffffffffffff1614155b8015610bc7575060008060008381526020019081526020016000206002015414155b8015610be9575060008060008381526020019081526020016000206003015414155b610c28576040517f08c379a0000000000000000000000000000000000000000000000000000000008152600401610c1f90611f23565b60405180910390fd5b600080600084815260200190815260200160002090508060010160009054906101000a900473ffffffffffffffffffffffffffffffffffffffff1673ffffffffffffffffffffffffffffffffffffffff163373ffffffffffffffffffffffffffffffffffffffff1614610cd0576040517f08c379a0000000000000000000000000000000000000000000000000000000008152600401610cc790612174565b60405180910390fd5b8060050160019054906101000a900460ff1615610d22576040517f08c379a0000000000000000000000000000000000000000000000000000000008152600401610d19906121e0565b60405180910390fd5b60018160050160016101000a81548160ff0219169083151502179055508060050160019054906101000a900460ff16610d90576040517f08c379a0000000000000000000000000000000000000000000000000000000008152600401610d879061224c565b60405180910390fd5b8060050160009054906101000a900460ff16610de1576040517f08c379a0000000000000000000000000000000000000000000000000000000008152600401610dd8906122b8565b60405180910390fd5b8060010160009054906101000a900473ffffffffffffffffffffffffffffffffffffffff1673ffffffffffffffffffffffffffffffffffffffff16837fec633583b4618456de8f6a7d1c8c87f24831d9422af8bd760673af7b7b2bce1c60405160405180910390a3505050565b6040518060e0016040528060015481526020018473ffffffffffffffffffffffffffffffffffffffff168152602001838152602001828152602001600081526020016000151581526020016000151581525060008060015481526020019081526020016000206000820151816000015560208201518160010160006101000a81548173ffffffffffffffffffffffffffffffffffffffff021916908373ffffffffffffffffffffffffffffffffffffffff16021790555060408201518160020155606082015181600301556080820151816004015560a08201518160050160006101000a81548160ff02191690831515021790555060c08201518160050160016101000a81548160ff0219169083151502179055509050508273ffffffffffffffffffffffffffffffffffffffff166001547f8bd51df280fb6e5da03326725d953ff900de098ff19db2acbac4fef4ef9a9c988484604051610fb19291906122d8565b60405180910390a360016000815480929190610fcc90612301565b9190505550505050565b600260009054906101000a900473ffffffffffffffffffffffffffffffffffffffff1673ffffffffffffffffffffffffffffffffffffffff163373ffffffffffffffffffffffffffffffffffffffff1614611066576040517f08c379a000000000000000000000000000000000000000000000000000000000815260040161105d906123bb565b60405180910390fd5b806001548110801561108e575060008060008381526020019081526020016000206000015414155b80156110fc5750600073ffffffffffffffffffffffffffffffffffffffff1660008083815260200190815260200160002060010160009054906101000a900473ffffffffffffffffffffffffffffffffffffffff1673ffffffffffffffffffffffffffffffffffffffff1614155b801561111e575060008060008381526020019081526020016000206002015414155b8015611140575060008060008381526020019081526020016000206003015414155b61117f576040517f08c379a000000000000000000000000000000000000000000000000000000000815260040161117690611f23565b60405180910390fd5b600080600084815260200190815260200160002090508060050160009054906101000a900460ff16156111e7576040517f08c379a00000000000000000000000000000000000000000000000000000000081526004016111de90612427565b60405180910390fd5b8060050160019054906101000a900460ff1615611239576040517f08c379a0000000000000000000000000000000000000000000000000000000008152600401611230906121e0565b60405180910390fd5b60018160050160006101000a81548160ff021916908315150217905550505050565b8060015481108015611283575060008060008381526020019081526020016000206000015414155b80156112f15750600073ffffffffffffffffffffffffffffffffffffffff1660008083815260200190815260200160002060010160009054906101000a900473ffffffffffffffffffffffffffffffffffffffff1673ffffffffffffffffffffffffffffffffffffffff1614155b8015611313575060008060008381526020019081526020016000206002015414155b8015611335575060008060008381526020019081526020016000206003015414155b611374576040517f08c379a000000000000000000000000000000000000000000000000000000000815260040161136b90611f23565b60405180910390fd5b6000349050600081116113bc576040517f08c379a00000000000000000000000000000000000000000000000000000000081526004016113b390612021565b60405180910390fd5b60006064600a836113cd9190612447565b6113d791906124b8565b905080826113e591906124e9565b915060008060008681526020019081526020016000209050828160040160008282546114119190612070565b92505081905550843373ffffffffffffffffffffffffffffffffffffffff167ff0635b903430329d43e370cdf589a8592ac950042978251b451f377aebe458c68560405161145f9190611eab565b60405180910390a35050505050565b8160015481108015611496575060008060008381526020019081526020016000206000015414155b80156115045750600073ffffffffffffffffffffffffffffffffffffffff1660008083815260200190815260200160002060010160009054906101000a900473ffffffffffffffffffffffffffffffffffffffff1673ffffffffffffffffffffffffffffffffffffffff1614155b8015611526575060008060008381526020019081526020016000206002015414155b8015611548575060008060008381526020019081526020016000206003015414155b611587576040517f08c379a000000000000000000000000000000000000000000000000000000000815260040161157e90611f23565b60405180910390fd5b600080600085815260200190815260200160002090508060010160009054906101000a900473ffffffffffffffffffffffffffffffffffffffff1673ffffffffffffffffffffffffffffffffffffffff163373ffffffffffffffffffffffffffffffffffffffff161461162f576040517f08c379a000000000000000000000000000000000000000000000000000000000815260040161162690612174565b60405180910390fd5b6000816004015411611676576040517f08c379a000000000000000000000000000000000000000000000000000000000815260040161166d90612569565b60405180910390fd5b60008160010160009054906101000a900473ffffffffffffffffffffffffffffffffffffffff1673ffffffffffffffffffffffffffffffffffffffff16846040516116c0906125ba565b60006040518083038185875af1925050503d80600081146116fd576040519150601f19603f3d011682016040523d82523d6000602084013e611702565b606091505b5050905080611746576040517f08c379a000000000000000000000000000000000000000000000000000000000815260040161173d9061261b565b60405180910390fd5b836000808781526020019081526020016000206004015461176791906124e9565b600080878152602001908152602001600020600401819055508160010160009054906101000a900473ffffffffffffffffffffffffffffffffffffffff1673ffffffffffffffffffffffffffffffffffffffff16857f3f5fbaf86658fdadee77f1d46e7f8a72424ad9839eda6a1dc6eb0a4228e4226e866040516117eb9190611eab565b60405180910390a35050505050565b6000806000806000856001548110801561182a575060008060008381526020019081526020016000206000015414155b80156118985750600073ffffffffffffffffffffffffffffffffffffffff1660008083815260200190815260200160002060010160009054906101000a900473ffffffffffffffffffffffffffffffffffffffff1673ffffffffffffffffffffffffffffffffffffffff1614155b80156118ba575060008060008381526020019081526020016000206002015414155b80156118dc575060008060008381526020019081526020016000206003015414155b61191b576040517f08c379a000000000000000000000000000000000000000000000000000000000815260040161191290611f23565b60405180910390fd5b60008060008981526020019081526020016000206040518060e0016040529081600082015481526020016001820160009054906101000a900473ffffffffffffffffffffffffffffffffffffffff1673ffffffffffffffffffffffffffffffffffffffff1673ffffffffffffffffffffffffffffffffffffffff1681526020016002820154815260200160038201548152602001600482015481526020016005820160009054906101000a900460ff161515151581526020016005820160019054906101000a900460ff16151515158152505090508060000151816020015182604001518360800151846060015196509650965096509650505091939590929450565b600260009054906101000a900473ffffffffffffffffffffffffffffffffffffffff1681565b60015481565b600080fd5b6000819050919050565b611a6281611a4f565b8114611a6d57600080fd5b50565b600081359050611a7f81611a59565b92915050565b600060208284031215611a9b57611a9a611a4a565b5b6000611aa984828501611a70565b91505092915050565b611abb81611a4f565b82525050565b600073ffffffffffffffffffffffffffffffffffffffff82169050919050565b6000611aec82611ac1565b9050919050565b611afc81611ae1565b82525050565b60008115159050919050565b611b1781611b02565b82525050565b600060e082019050611b32600083018a611ab2565b611b3f6020830189611af3565b611b4c6040830188611ab2565b611b596060830187611ab2565b611b666080830186611ab2565b611b7360a0830185611b0e565b611b8060c0830184611b0e565b98975050505050505050565b600081519050919050565b600082825260208201905092915050565b6000819050602082019050919050565b611bc181611a4f565b82525050565b6000611bd38383611bb8565b60208301905092915050565b6000602082019050919050565b6000611bf782611b8c565b611c018185611b97565b9350611c0c83611ba8565b8060005b83811015611c3d578151611c248882611bc7565b9750611c2f83611bdf565b925050600181019050611c10565b5085935050505092915050565b600081519050919050565b600082825260208201905092915050565b6000819050602082019050919050565b611c7f81611ae1565b82525050565b6000611c918383611c76565b60208301905092915050565b6000602082019050919050565b6000611cb582611c4a565b611cbf8185611c55565b9350611cca83611c66565b8060005b83811015611cfb578151611ce28882611c85565b9750611ced83611c9d565b925050600181019050611cce565b5085935050505092915050565b600060a0820190508181036000830152611d228188611bec565b90508181036020830152611d368187611caa565b90508181036040830152611d4a8186611bec565b90508181036060830152611d5e8185611bec565b90508181036080830152611d728184611bec565b90509695505050505050565b611d8781611ae1565b8114611d9257600080fd5b50565b600081359050611da481611d7e565b92915050565b600080600060608486031215611dc357611dc2611a4a565b5b6000611dd186828701611d95565b9350506020611de286828701611a70565b9250506040611df386828701611a70565b9150509250925092565b60008060408385031215611e1457611e13611a4a565b5b6000611e2285828601611a70565b9250506020611e3385828601611a70565b9150509250929050565b600060a082019050611e526000830188611ab2565b611e5f6020830187611af3565b611e6c6040830186611ab2565b611e796060830185611ab2565b611e866080830184611ab2565b9695505050505050565b6000602082019050611ea56000830184611af3565b92915050565b6000602082019050611ec06000830184611ab2565b92915050565b600082825260208201905092915050565b7f50726f6a65637420646f6573206e6f7420657869737400000000000000000000600082015250565b6000611f0d601683611ec6565b9150611f1882611ed7565b602082019050919050565b60006020820190508181036000830152611f3c81611f00565b9050919050565b7f4f6e6c79207468652070726f6a6563742063726561746f722063616e2064656c60008201527f657465207468652070726f6a6563740000000000000000000000000000000000602082015250565b6000611f9f602f83611ec6565b9150611faa82611f43565b604082019050919050565b60006020820190508181036000830152611fce81611f92565b9050919050565b7f456e74657220616e204554482076616c756520746f20646f6e61746500000000600082015250565b600061200b601c83611ec6565b915061201682611fd5565b602082019050919050565b6000602082019050818103600083015261203a81611ffe565b9050919050565b7f4e487b7100000000000000000000000000000000000000000000000000000000600052601160045260246000fd5b600061207b82611a4f565b915061208683611a4f565b925082820190508082111561209e5761209d612041565b5b92915050565b7f4e487b7100000000000000000000000000000000000000000000000000000000600052604160045260246000fd5b7f4e487b7100000000000000000000000000000000000000000000000000000000600052603260045260246000fd5b7f4f6e6c79207468652070726f6a656374206f776e65722077616c6c657420636160008201527f6e2072657175657374207769746864726177616c000000000000000000000000602082015250565b600061215e603483611ec6565b915061216982612102565b604082019050919050565b6000602082019050818103600083015261218d81612151565b9050919050565b7f5769746864726177616c20616c72656164792072657175657374656400000000600082015250565b60006121ca601c83611ec6565b91506121d582612194565b602082019050919050565b600060208201905081810360008301526121f9816121bd565b9050919050565b7f5769746864726177616c206e6f74207265717565737465640000000000000000600082015250565b6000612236601883611ec6565b915061224182612200565b602082019050919050565b6000602082019050818103600083015261226581612229565b9050919050565b7f5769746864726177616c206e6f74207065726d69747465640000000000000000600082015250565b60006122a2601883611ec6565b91506122ad8261226c565b602082019050919050565b600060208201905081810360008301526122d181612295565b9050919050565b60006040820190506122ed6000830185611ab2565b6122fa6020830184611ab2565b9392505050565b600061230c82611a4f565b91507fffffffffffffffffffffffffffffffffffffffffffffffffffffffffffffffff820361233e5761233d612041565b5b600182019050919050565b7f4f6e6c792061646d696e2063616e20706572666f726d2074686973206163746960008201527f6f6e000000000000000000000000000000000000000000000000000000000000602082015250565b60006123a5602283611ec6565b91506123b082612349565b604082019050919050565b600060208201905081810360008301526123d481612398565b9050919050565b7f466972737420617070726f76616c20616c726561647920676976656e00000000600082015250565b6000612411601c83611ec6565b915061241c826123db565b602082019050919050565b6000602082019050818103600083015261244081612404565b9050919050565b600061245282611a4f565b915061245d83611a4f565b925082820261246b81611a4f565b9150828204841483151761248257612481612041565b5b5092915050565b7f4e487b7100000000000000000000000000000000000000000000000000000000600052601260045260246000fd5b60006124c382611a4f565b91506124ce83611a4f565b9250826124de576124dd612489565b5b828204905092915050565b60006124f482611a4f565b91506124ff83611a4f565b925082820390508181111561251757612516612041565b5b92915050565b7f4e6f2066756e647320746f207769746864726177000000000000000000000000600082015250565b6000612553601483611ec6565b915061255e8261251d565b602082019050919050565b6000602082019050818103600083015261258281612546565b9050919050565b600081905092915050565b50565b60006125a4600083612589565b91506125af82612594565b600082019050919050565b60006125c582612597565b9150819050919050565b7f455448207472616e73666572206661696c656400000000000000000000000000600082015250565b6000612605601383611ec6565b9150612610826125cf565b602082019050919050565b60006020820190508181036000830152612634816125f8565b905091905056fea264697066735822122059534f82d7d4232c3a844d1eda3be935d9a63c64b60dbf2554027833e2f2e0e064736f6c63430008180033",
  "linkReferences": {},
  "deployedLinkReferences": {}
}